{
  "_format": "hh-sol-artifact-1",
  "contractName": "OpenField",
  "sourceName": "contracts/OpenField.sol",
  "abi": [
    {
      "inputs": [],
      "stateMutability": "nonpayable",
      "type": "constructor"
    },
    {
      "anonymous": false,
      "inputs": [
        {
          "components": [
            {
              "internalType": "uint256",
              "name": "id",
              "type": "uint256"
            },
            {
              "internalType": "string",
              "name": "name",
              "type": "string"
            },
            {
              "internalType": "string",
              "name": "location",
              "type": "string"
            },
            {
              "internalType": "string",
              "name": "longitude",
              "type": "string"
            },
            {
              "internalType": "string",
              "name": "latitude",
              "type": "string"
            },
            {
              "internalType": "string",
              "name": "mobile",
              "type": "string"
            }
          ],
          "indexed": false,
          "internalType": "struct OpenField.Farmer",
          "name": "",
          "type": "tuple"
        }
      ],
      "name": "NewFarmer",
      "type": "event"
    },
    {
      "anonymous": false,
      "inputs": [
        {
          "components": [
            {
              "internalType": "uint256",
              "name": "id",
              "type": "uint256"
            },
            {
              "internalType": "uint256",
              "name": "producer_id",
              "type": "uint256"
            },
            {
              "internalType": "string",
              "name": "producer_name",
              "type": "string"
            },
            {
              "internalType": "string",
              "name": "name",
              "type": "string"
            },
            {
              "internalType": "uint256",
              "name": "quantity",
              "type": "uint256"
            },
            {
              "internalType": "string",
              "name": "ingredient",
              "type": "string"
            },
            {
              "internalType": "string",
              "name": "batchno",
              "type": "string"
            },
            {
              "internalType": "string",
              "name": "manufacture_date",
              "type": "string"
            },
            {
              "internalType": "string",
              "name": "expiry_date",
              "type": "string"
            }
          ],
          "indexed": false,
          "internalType": "struct OpenField.Pesticide",
          "name": "",
          "type": "tuple"
        }
      ],
      "name": "NewPesticide",
      "type": "event"
    },
    {
      "inputs": [
        {
          "internalType": "string",
          "name": "_name",
          "type": "string"
        },
        {
          "internalType": "string",
          "name": "_mob",
          "type": "string"
        },
        {
          "internalType": "string",
          "name": "_location",
          "type": "string"
        },
        {
          "internalType": "string",
          "name": "_longitude",
          "type": "string"
        },
        {
          "internalType": "string",
          "name": "_latitude",
          "type": "string"
        }
      ],
      "name": "addFarmer",
      "outputs": [],
      "stateMutability": "nonpayable",
      "type": "function"
    },
    {
      "inputs": [
        {
          "internalType": "uint256",
          "name": "_producer_id",
          "type": "uint256"
        },
        {
          "internalType": "uint256",
          "name": "_quantity",
          "type": "uint256"
        },
        {
          "internalType": "string",
          "name": "_name",
          "type": "string"
        },
        {
          "internalType": "string",
          "name": "_producer_name",
          "type": "string"
        },
        {
          "internalType": "string",
          "name": "_ingredient",
          "type": "string"
        },
        {
          "internalType": "string",
          "name": "_batchno",
          "type": "string"
        },
        {
          "internalType": "string",
          "name": "_manufacture_date",
          "type": "string"
        },
        {
          "internalType": "string",
          "name": "_expiry_date",
          "type": "string"
        }
      ],
      "name": "addPesticide",
      "outputs": [],
      "stateMutability": "nonpayable",
      "type": "function"
    },
    {
      "inputs": [
        {
          "internalType": "uint256",
          "name": "_pest_id",
          "type": "uint256"
        },
        {
          "internalType": "uint256",
          "name": "_farmer_id",
          "type": "uint256"
        },
        {
          "internalType": "uint256",
          "name": "_qtd",
          "type": "uint256"
        }
      ],
      "name": "addPesticideFarmer",
      "outputs": [],
      "stateMutability": "nonpayable",
      "type": "function"
    },
    {
      "inputs": [],
      "name": "cropCount",
      "outputs": [
        {
          "internalType": "uint256",
          "name": "",
          "type": "uint256"
        }
      ],
      "stateMutability": "view",
      "type": "function"
    },
    {
      "inputs": [
        {
          "internalType": "uint256",
          "name": "",
          "type": "uint256"
        }
      ],
      "name": "crops",
      "outputs": [
        {
          "internalType": "uint256",
          "name": "id",
          "type": "uint256"
        },
        {
          "internalType": "uint256",
          "name": "farmer_id",
          "type": "uint256"
        },
        {
          "internalType": "string",
          "name": "name",
          "type": "string"
        }
      ],
      "stateMutability": "view",
      "type": "function"
    },
    {
      "inputs": [
        {
          "internalType": "uint256",
          "name": "",
          "type": "uint256"
        }
      ],
      "name": "distributors",
      "outputs": [
        {
          "internalType": "uint256",
          "name": "id",
          "type": "uint256"
        },
        {
          "internalType": "string",
          "name": "name",
          "type": "string"
        },
        {
          "internalType": "string",
          "name": "location",
          "type": "string"
        },
        {
          "internalType": "string",
          "name": "longitude",
          "type": "string"
        },
        {
          "internalType": "string",
          "name": "latitude",
          "type": "string"
        }
      ],
      "stateMutability": "view",
      "type": "function"
    },
    {
      "inputs": [],
      "name": "farmerCount",
      "outputs": [
        {
          "internalType": "uint256",
          "name": "",
          "type": "uint256"
        }
      ],
      "stateMutability": "view",
      "type": "function"
    },
    {
      "inputs": [
        {
          "internalType": "uint256",
          "name": "",
          "type": "uint256"
        }
      ],
      "name": "farmers",
      "outputs": [
        {
          "internalType": "uint256",
          "name": "id",
          "type": "uint256"
        },
        {
          "internalType": "string",
          "name": "name",
          "type": "string"
        },
        {
          "internalType": "string",
          "name": "location",
          "type": "string"
        },
        {
          "internalType": "string",
          "name": "longitude",
          "type": "string"
        },
        {
          "internalType": "string",
          "name": "latitude",
          "type": "string"
        },
        {
          "internalType": "string",
          "name": "mobile",
          "type": "string"
        }
      ],
      "stateMutability": "view",
      "type": "function"
    },
    {
      "inputs": [],
      "name": "getAllFarmers",
      "outputs": [
        {
          "components": [
            {
              "internalType": "uint256",
              "name": "id",
              "type": "uint256"
            },
            {
              "internalType": "string",
              "name": "name",
              "type": "string"
            },
            {
              "internalType": "string",
              "name": "location",
              "type": "string"
            },
            {
              "internalType": "string",
              "name": "longitude",
              "type": "string"
            },
            {
              "internalType": "string",
              "name": "latitude",
              "type": "string"
            },
            {
              "internalType": "string",
              "name": "mobile",
              "type": "string"
            }
          ],
          "internalType": "struct OpenField.Farmer[]",
          "name": "",
          "type": "tuple[]"
        }
      ],
      "stateMutability": "view",
      "type": "function"
    },
    {
      "inputs": [
        {
          "internalType": "uint256",
          "name": "_id",
          "type": "uint256"
        }
      ],
      "name": "getFamerById",
      "outputs": [
        {
          "components": [
            {
              "internalType": "uint256",
              "name": "id",
              "type": "uint256"
            },
            {
              "internalType": "string",
              "name": "name",
              "type": "string"
            },
            {
              "internalType": "string",
              "name": "location",
              "type": "string"
            },
            {
              "internalType": "string",
              "name": "longitude",
              "type": "string"
            },
            {
              "internalType": "string",
              "name": "latitude",
              "type": "string"
            },
            {
              "internalType": "string",
              "name": "mobile",
              "type": "string"
            }
          ],
          "internalType": "struct OpenField.Farmer",
          "name": "",
          "type": "tuple"
        }
      ],
      "stateMutability": "view",
      "type": "function"
    },
    {
      "inputs": [
        {
          "internalType": "uint256",
          "name": "_id",
          "type": "uint256"
        }
      ],
      "name": "getFarmersPesticidesById",
      "outputs": [
        {
          "components": [
            {
              "internalType": "uint256",
              "name": "id",
              "type": "uint256"
            },
            {
              "internalType": "uint256",
              "name": "producer_id",
              "type": "uint256"
            },
            {
              "internalType": "string",
              "name": "producer_name",
              "type": "string"
            },
            {
              "internalType": "string",
              "name": "name",
              "type": "string"
            },
            {
              "internalType": "uint256",
              "name": "quantity",
              "type": "uint256"
            },
            {
              "internalType": "string",
              "name": "ingredient",
              "type": "string"
            },
            {
              "internalType": "string",
              "name": "batchno",
              "type": "string"
            },
            {
              "internalType": "string",
              "name": "manufacture_date",
              "type": "string"
            },
            {
              "internalType": "string",
              "name": "expiry_date",
              "type": "string"
            }
          ],
          "internalType": "struct OpenField.Pesticide[]",
          "name": "",
          "type": "tuple[]"
        }
      ],
      "stateMutability": "view",
      "type": "function"
    },
    {
      "inputs": [],
      "name": "getPesticides",
      "outputs": [
        {
          "components": [
            {
              "internalType": "uint256",
              "name": "id",
              "type": "uint256"
            },
            {
              "internalType": "uint256",
              "name": "producer_id",
              "type": "uint256"
            },
            {
              "internalType": "string",
              "name": "producer_name",
              "type": "string"
            },
            {
              "internalType": "string",
              "name": "name",
              "type": "string"
            },
            {
              "internalType": "uint256",
              "name": "quantity",
              "type": "uint256"
            },
            {
              "internalType": "string",
              "name": "ingredient",
              "type": "string"
            },
            {
              "internalType": "string",
              "name": "batchno",
              "type": "string"
            },
            {
              "internalType": "string",
              "name": "manufacture_date",
              "type": "string"
            },
            {
              "internalType": "string",
              "name": "expiry_date",
              "type": "string"
            }
          ],
          "internalType": "struct OpenField.Pesticide[]",
          "name": "",
          "type": "tuple[]"
        }
      ],
      "stateMutability": "view",
      "type": "function"
    },
    {
      "inputs": [
        {
          "internalType": "uint256",
          "name": "_id",
          "type": "uint256"
        }
      ],
      "name": "getProcudersPesticides",
      "outputs": [
        {
          "components": [
            {
              "internalType": "uint256",
              "name": "id",
              "type": "uint256"
            },
            {
              "internalType": "uint256",
              "name": "producer_id",
              "type": "uint256"
            },
            {
              "internalType": "string",
              "name": "producer_name",
              "type": "string"
            },
            {
              "internalType": "string",
              "name": "name",
              "type": "string"
            },
            {
              "internalType": "uint256",
              "name": "quantity",
              "type": "uint256"
            },
            {
              "internalType": "string",
              "name": "ingredient",
              "type": "string"
            },
            {
              "internalType": "string",
              "name": "batchno",
              "type": "string"
            },
            {
              "internalType": "string",
              "name": "manufacture_date",
              "type": "string"
            },
            {
              "internalType": "string",
              "name": "expiry_date",
              "type": "string"
            }
          ],
          "internalType": "struct OpenField.Pesticide[]",
          "name": "",
          "type": "tuple[]"
        }
      ],
      "stateMutability": "view",
      "type": "function"
    },
    {
      "inputs": [
        {
          "internalType": "uint256",
          "name": "_id",
          "type": "uint256"
        }
      ],
      "name": "getProducerById",
      "outputs": [
        {
          "components": [
            {
              "internalType": "uint256",
              "name": "id",
              "type": "uint256"
            },
            {
              "internalType": "string",
              "name": "name",
              "type": "string"
            },
            {
              "internalType": "string",
              "name": "dealer_name",
              "type": "string"
            },
            {
              "internalType": "string",
              "name": "location",
              "type": "string"
            },
            {
              "internalType": "string",
              "name": "longitude",
              "type": "string"
            },
            {
              "internalType": "string",
              "name": "latitude",
              "type": "string"
            }
          ],
          "internalType": "struct OpenField.Producer",
          "name": "",
          "type": "tuple"
        }
      ],
      "stateMutability": "view",
      "type": "function"
    },
    {
      "inputs": [],
      "name": "getProducers",
      "outputs": [
        {
          "components": [
            {
              "internalType": "uint256",
              "name": "id",
              "type": "uint256"
            },
            {
              "internalType": "string",
              "name": "name",
              "type": "string"
            },
            {
              "internalType": "string",
              "name": "dealer_name",
              "type": "string"
            },
            {
              "internalType": "string",
              "name": "location",
              "type": "string"
            },
            {
              "internalType": "string",
              "name": "longitude",
              "type": "string"
            },
            {
              "internalType": "string",
              "name": "latitude",
              "type": "string"
            }
          ],
          "internalType": "struct OpenField.Producer[]",
          "name": "",
          "type": "tuple[]"
        }
      ],
      "stateMutability": "view",
      "type": "function"
    },
    {
      "inputs": [],
      "name": "name",
      "outputs": [
        {
          "internalType": "string",
          "name": "",
          "type": "string"
        }
      ],
      "stateMutability": "view",
      "type": "function"
    },
    {
      "inputs": [],
      "name": "pesticideCount",
      "outputs": [
        {
          "internalType": "uint256",
          "name": "",
          "type": "uint256"
        }
      ],
      "stateMutability": "view",
      "type": "function"
    },
    {
      "inputs": [],
      "name": "pesticideFarmerCount",
      "outputs": [
        {
          "internalType": "uint256",
          "name": "",
          "type": "uint256"
        }
      ],
      "stateMutability": "view",
      "type": "function"
    },
    {
      "inputs": [
        {
          "internalType": "uint256",
          "name": "",
          "type": "uint256"
        }
      ],
      "name": "pesticides",
      "outputs": [
        {
          "internalType": "uint256",
          "name": "id",
          "type": "uint256"
        },
        {
          "internalType": "uint256",
          "name": "producer_id",
          "type": "uint256"
        },
        {
          "internalType": "string",
          "name": "producer_name",
          "type": "string"
        },
        {
          "internalType": "string",
          "name": "name",
          "type": "string"
        },
        {
          "internalType": "uint256",
          "name": "quantity",
          "type": "uint256"
        },
        {
          "internalType": "string",
          "name": "ingredient",
          "type": "string"
        },
        {
          "internalType": "string",
          "name": "batchno",
          "type": "string"
        },
        {
          "internalType": "string",
          "name": "manufacture_date",
          "type": "string"
        },
        {
          "internalType": "string",
          "name": "expiry_date",
          "type": "string"
        }
      ],
      "stateMutability": "view",
      "type": "function"
    },
    {
      "inputs": [
        {
          "internalType": "uint256",
          "name": "",
          "type": "uint256"
        }
      ],
      "name": "pesticidesDistributor",
      "outputs": [
        {
          "internalType": "uint256",
          "name": "id",
          "type": "uint256"
        },
        {
          "internalType": "uint256",
          "name": "distributor_id",
          "type": "uint256"
        },
        {
          "internalType": "uint256",
          "name": "pesticide_id",
          "type": "uint256"
        }
      ],
      "stateMutability": "view",
      "type": "function"
    },
    {
      "inputs": [
        {
          "internalType": "uint256",
          "name": "",
          "type": "uint256"
        }
      ],
      "name": "pesticidesFarmer",
      "outputs": [
        {
          "internalType": "uint256",
          "name": "id",
          "type": "uint256"
        },
        {
          "internalType": "uint256",
          "name": "farmer_id",
          "type": "uint256"
        },
        {
          "internalType": "uint256",
          "name": "qtd",
          "type": "uint256"
        },
        {
          "internalType": "uint256",
          "name": "pesticide_id",
          "type": "uint256"
        }
      ],
      "stateMutability": "view",
      "type": "function"
    },
    {
      "inputs": [],
      "name": "producerCount",
      "outputs": [
        {
          "internalType": "uint256",
          "name": "",
          "type": "uint256"
        }
      ],
      "stateMutability": "view",
      "type": "function"
    },
    {
      "inputs": [
        {
          "internalType": "uint256",
          "name": "",
          "type": "uint256"
        }
      ],
      "name": "producers",
      "outputs": [
        {
          "internalType": "uint256",
          "name": "id",
          "type": "uint256"
        },
        {
          "internalType": "string",
          "name": "name",
          "type": "string"
        },
        {
          "internalType": "string",
          "name": "dealer_name",
          "type": "string"
        },
        {
          "internalType": "string",
          "name": "location",
          "type": "string"
        },
        {
          "internalType": "string",
          "name": "longitude",
          "type": "string"
        },
        {
          "internalType": "string",
          "name": "latitude",
          "type": "string"
        }
      ],
      "stateMutability": "view",
      "type": "function"
    }
  ],
  "bytecode": "0x6080604052600060085560006009556000600a556000600b556000600c553480156200002a57600080fd5b506040518060400160405280600981526020017f4f70656e4669656c640000000000000000000000000000000000000000000000815250600090816200007191906200176a565b5060016009600082825462000087919062001880565b9250508190555060006002600060095481526020019081526020016000209050600181600001819055506040518060400160405280600f81526020017f436f726f6d616e204c696d697465640000000000000000000000000000000000815250816001019081620000f991906200176a565b506040518060400160405280600581526020017f616b6973680000000000000000000000000000000000000000000000000000008152508160020190816200014291906200176a565b506040518060400160405280600881526020017f42656e676c7572750000000000000000000000000000000000000000000000008152508160030190816200018b91906200176a565b506040518060400160405280600381526020017f3436250000000000000000000000000000000000000000000000000000000000815250816004019081620001d491906200176a565b506040518060400160405280600381526020017f33362500000000000000000000000000000000000000000000000000000000008152508160050190816200021d91906200176a565b5060016009600082825462000233919062001880565b9250508190555060006002600060095481526020019081526020016000209050600281600001819055506040518060400160405280600c81526020017f4348414b204c696d697465640000000000000000000000000000000000000000815250816001019081620002a591906200176a565b506040518060400160405280600681526020017f20616d7275680000000000000000000000000000000000000000000000000000815250816002019081620002ee91906200176a565b506040518060400160405280600e81526020017f416e6468726120707261646573680000000000000000000000000000000000008152508160030190816200033791906200176a565b506040518060400160405280600381526020017f35302500000000000000000000000000000000000000000000000000000000008152508160040190816200038091906200176a565b506040518060400160405280600381526020017f3238250000000000000000000000000000000000000000000000000000000000815250816005019081620003c991906200176a565b50620005226001605a6040518060400160405280601081526020017f416d6d6f6e69756d206e697472617465000000000000000000000000000000008152506040518060400160405280600f81526020017f436f726f6d616e204c696d6974656400000000000000000000000000000000008152506040518060400160405280600881526020017f616d6d6f6e69756d0000000000000000000000000000000000000000000000008152506040518060400160405280600481526020017f42303031000000000000000000000000000000000000000000000000000000008152506040518060400160405280600981526020017f312f31322f3230303200000000000000000000000000000000000000000000008152506040518060400160405280600981526020017f372f30332f3230303300000000000000000000000000000000000000000000008152506200125c60201b60201c565b6200067a6001601e6040518060400160405280600a81526020017f50686f73706875727573000000000000000000000000000000000000000000008152506040518060400160405280600f81526020017f436f726f6d616e204c696d6974656400000000000000000000000000000000008152506040518060400160405280600a81526020017f70686f73706875727573000000000000000000000000000000000000000000008152506040518060400160405280600481526020017f42303032000000000000000000000000000000000000000000000000000000008152506040518060400160405280600a81526020017f31362f31322f32303032000000000000000000000000000000000000000000008152506040518060400160405280600981526020017f372f30332f3230303300000000000000000000000000000000000000000000008152506200125c60201b60201c565b620007d2600160286040518060400160405280600f81526020017f537570657250686f7370687572757300000000000000000000000000000000008152506040518060400160405280600f81526020017f436f726f6d616e204c696d6974656400000000000000000000000000000000008152506040518060400160405280600a81526020017f70686f73706875727573000000000000000000000000000000000000000000008152506040518060400160405280600481526020017f42303033000000000000000000000000000000000000000000000000000000008152506040518060400160405280600981526020017f362f31322f3230303200000000000000000000000000000000000000000000008152506040518060400160405280600981526020017f382f30372f3230303300000000000000000000000000000000000000000000008152506200125c60201b60201c565b6200092a600260506040518060400160405280600f81526020017f526f636b2070686f7370616861746500000000000000000000000000000000008152506040518060400160405280600c81526020017f4348414b204c696d6974656400000000000000000000000000000000000000008152506040518060400160405280600981526020017f70686f73706861746500000000000000000000000000000000000000000000008152506040518060400160405280600481526020017f42303039000000000000000000000000000000000000000000000000000000008152506040518060400160405280600981526020017f32322f312f3230303200000000000000000000000000000000000000000000008152506040518060400160405280600981526020017f372f30332f3230303300000000000000000000000000000000000000000000008152506200125c60201b60201c565b62000a82600260506040518060400160405280601081526020017f416d6f6e69756d2063686c6f72696465000000000000000000000000000000008152506040518060400160405280600c81526020017f4348414b204c696d6974656400000000000000000000000000000000000000008152506040518060400160405280600781526020017f416d6f6e69756d000000000000000000000000000000000000000000000000008152506040518060400160405280600481526020017f42303130000000000000000000000000000000000000000000000000000000008152506040518060400160405280600981526020017f31392f312f3230303200000000000000000000000000000000000000000000008152506040518060400160405280600981526020017f372f30392f3230303300000000000000000000000000000000000000000000008152506200125c60201b60201c565b62000ba06040518060400160405280600881526020017f53726565686172690000000000000000000000000000000000000000000000008152506040518060400160405280600a81526020017f37353639383435333235000000000000000000000000000000000000000000008152506040518060400160405280600681526020017f6b616e6e757200000000000000000000000000000000000000000000000000008152506040518060400160405280600381526020017f35352500000000000000000000000000000000000000000000000000000000008152506040518060400160405280600381526020017f3230250000000000000000000000000000000000000000000000000000000000815250620013c260201b60201c565b62000cbe6040518060400160405280600581526020017f416b6173680000000000000000000000000000000000000000000000000000008152506040518060400160405280600a81526020017f39373736383531323435000000000000000000000000000000000000000000008152506040518060400160405280600881526020017f686172696b6f64650000000000000000000000000000000000000000000000008152506040518060400160405280600381526020017f34352500000000000000000000000000000000000000000000000000000000008152506040518060400160405280600381526020017f3233250000000000000000000000000000000000000000000000000000000000815250620013c260201b60201c565b62000ddc6040518060400160405280600481526020017f416c616e000000000000000000000000000000000000000000000000000000008152506040518060400160405280600a81526020017f37383635333339353435000000000000000000000000000000000000000000008152506040518060400160405280600a81526020017f6574616e746869747461000000000000000000000000000000000000000000008152506040518060400160405280600381526020017f34322500000000000000000000000000000000000000000000000000000000008152506040518060400160405280600381526020017f3137250000000000000000000000000000000000000000000000000000000000815250620013c260201b60201c565b62000efa6040518060400160405280600481526020017f48657961000000000000000000000000000000000000000000000000000000008152506040518060400160405280600a81526020017f39343436373735353538000000000000000000000000000000000000000000008152506040518060400160405280600e81526020017f416e6468726120707261646573680000000000000000000000000000000000008152506040518060400160405280600381526020017f34352500000000000000000000000000000000000000000000000000000000008152506040518060400160405280600381526020017f3230250000000000000000000000000000000000000000000000000000000000815250620013c260201b60201c565b620010186040518060400160405280600681526020017f41736877696e00000000000000000000000000000000000000000000000000008152506040518060400160405280600a81526020017f36373739383835343831000000000000000000000000000000000000000000008152506040518060400160405280600b81526020017f4368656e6e61692c20544e0000000000000000000000000000000000000000008152506040518060400160405280600381526020017f34352500000000000000000000000000000000000000000000000000000000008152506040518060400160405280600381526020017f3530250000000000000000000000000000000000000000000000000000000000815250620013c260201b60201c565b620011366040518060400160405280600581526020017f41736865720000000000000000000000000000000000000000000000000000008152506040518060400160405280600b81526020017f37343436393838333235350000000000000000000000000000000000000000008152506040518060400160405280600981526020017f54656c616e67616e6100000000000000000000000000000000000000000000008152506040518060400160405280600381526020017f34352500000000000000000000000000000000000000000000000000000000008152506040518060400160405280600381526020017f3130250000000000000000000000000000000000000000000000000000000000815250620013c260201b60201c565b620012546040518060400160405280600581526020017f4e6f6f68610000000000000000000000000000000000000000000000000000008152506040518060400160405280600a81526020017f39363635353838343432000000000000000000000000000000000000000000008152506040518060400160405280600d81526020017f4879646572616261642c204150000000000000000000000000000000000000008152506040518060400160405280600381526020017f34352500000000000000000000000000000000000000000000000000000000008152506040518060400160405280600381526020017f3330250000000000000000000000000000000000000000000000000000000000815250620013c260201b60201c565b505062001c0e565b60008651116200126b57600080fd5b60008551116200127a57600080fd5b60008451116200128957600080fd5b60008351116200129857600080fd5b6000825111620012a757600080fd5b6000815111620012b657600080fd5b600c6000815480929190620012cb90620018bb565b9190505550600060066000600c5481526020019081526020016000209050600c548160000181905550888160010181905550868160030190816200131091906200176a565b50858160020190816200132491906200176a565b50878160040181905550848160050190816200134191906200176a565b50838160060190816200135591906200176a565b50828160070190816200136991906200176a565b50818160080190816200137d91906200176a565b507fedde1f77670c495bdd95aa0a5818afb5b25c0110fec0cf231934b4069dbef6a181604051620013af919062001b0b565b60405180910390a1505050505050505050565b6000855111620013d157600080fd5b6000845111620013e057600080fd5b6000835111620013ef57600080fd5b6000825111620013fe57600080fd5b60008151116200140d57600080fd5b600860008154809291906200142290620018bb565b9190505550600060016000600854815260200190815260200160002090506008548160000181905550858160010190816200145e91906200176a565b50848160050190816200147291906200176a565b50838160020190816200148691906200176a565b50828160030190816200149a91906200176a565b5081816004019081620014ae91906200176a565b507f8a393f24b50f96cb78dcfb57a53c4c8979f03a0c93941ff9576c05c14a9465cf81604051620014e0919062001bea565b60405180910390a1505050505050565b600081519050919050565b7f4e487b7100000000000000000000000000000000000000000000000000000000600052604160045260246000fd5b7f4e487b7100000000000000000000000000000000000000000000000000000000600052602260045260246000fd5b600060028204905060018216806200157257607f821691505b6020821081036200158857620015876200152a565b5b50919050565b60008190508160005260206000209050919050565b60006020601f8301049050919050565b600082821b905092915050565b600060088302620015f27fffffffffffffffffffffffffffffffffffffffffffffffffffffffffffffffff82620015b3565b620015fe8683620015b3565b95508019841693508086168417925050509392505050565b6000819050919050565b6000819050919050565b60006200164b620016456200163f8462001616565b62001620565b62001616565b9050919050565b6000819050919050565b62001667836200162a565b6200167f620016768262001652565b848454620015c0565b825550505050565b600090565b6200169662001687565b620016a38184846200165c565b505050565b5b81811015620016cb57620016bf6000826200168c565b600181019050620016a9565b5050565b601f8211156200171a57620016e4816200158e565b620016ef84620015a3565b81016020851015620016ff578190505b620017176200170e85620015a3565b830182620016a8565b50505b505050565b600082821c905092915050565b60006200173f600019846008026200171f565b1980831691505092915050565b60006200175a83836200172c565b9150826002028217905092915050565b6200177582620014f0565b67ffffffffffffffff811115620017915762001790620014fb565b5b6200179d825462001559565b620017aa828285620016cf565b600060209050601f831160018114620017e25760008415620017cd578287015190505b620017d985826200174c565b86555062001849565b601f198416620017f2866200158e565b60005b828110156200181c57848901518255600182019150602085019450602081019050620017f5565b868310156200183c578489015162001838601f8916826200172c565b8355505b6001600288020188555050505b505050505050565b7f4e487b7100000000000000000000000000000000000000000000000000000000600052601160045260246000fd5b60006200188d8262001616565b91506200189a8362001616565b9250828201905080821115620018b557620018b462001851565b5b92915050565b6000620018c88262001616565b91507fffffffffffffffffffffffffffffffffffffffffffffffffffffffffffffffff8203620018fd57620018fc62001851565b5b600182019050919050565b60008160001c9050919050565b6000819050919050565b600062001936620019308362001908565b62001915565b9050919050565b620019488162001616565b82525050565b600082825260208201905092915050565b600081546200196e8162001559565b6200197a81866200194e565b94506001821660008114620019985760018114620019af57620019e6565b60ff198316865281151560200286019350620019e6565b620019ba856200158e565b60005b83811015620019de57815481890152600182019150602081019050620019bd565b808801955050505b50505092915050565b60006101208301600080840154905062001a09816200191f565b62001a1860008701826200193d565b506001840154905062001a2b816200191f565b62001a3a60208701826200193d565b5060028401858303604087015262001a5383826200195f565b92505060038401858303606087015262001a6e83826200195f565b9250506004840154905062001a83816200191f565b62001a9260808701826200193d565b506005840185830360a087015262001aab83826200195f565b9250506006840185830360c087015262001ac683826200195f565b9250506007840185830360e087015262001ae183826200195f565b9250506008840185830361010087015262001afd83826200195f565b925050819250505092915050565b6000602082019050818103600083015262001b278184620019ef565b905092915050565b600060c08301600080840154905062001b48816200191f565b62001b5760008701826200193d565b5060018401858303602087015262001b7083826200195f565b92505060028401858303604087015262001b8b83826200195f565b92505060038401858303606087015262001ba683826200195f565b92505060048401858303608087015262001bc183826200195f565b9250506005840185830360a087015262001bdc83826200195f565b925050819250505092915050565b6000602082019050818103600083015262001c06818462001b2f565b905092915050565b6147238062001c1e6000396000f3fe608060405234801561001057600080fd5b506004361061014d5760003560e01c806380507b2a116100c3578063d708fe5b1161007c578063d708fe5b14610406578063dc1e392c14610424578063dfd55a2c14610457578063e80a7eb914610475578063ecb22baa14610493578063f71afe33146104b15761014d565b806380507b2a146103165780638afdd66914610332578063961e89b8146103675780639b68ade714610383578063bd45b397146103b8578063c5779fd1146103d65761014d565b8063458a130811610115578063458a13081461022057806350b492ba1461023e578063536954e4146102725780635446032d1461029057806370c9f1a5146102ac5780637ee49d91146102de5761014d565b806306fdde03146101525780630814f1cf1461017057806318c7833f146101a0578063220511e6146101d2578063279115ea14610202575b600080fd5b61015a6104e1565b60405161016791906132b2565b60405180910390f35b61018a6004803603810190610185919061331e565b61056f565b6040516101979190613449565b60405180910390f35b6101ba60048036038101906101b5919061331e565b610895565b6040516101c99392919061347a565b60405180910390f35b6101ec60048036038101906101e7919061331e565b6108bf565b6040516101f99190613556565b60405180910390f35b61020a610be5565b6040516102179190613722565b60405180910390f35b610228611053565b6040516102359190613744565b60405180910390f35b6102586004803603810190610253919061331e565b611059565b60405161026995949392919061375f565b60405180910390f35b61027a6112af565b6040516102879190613935565b60405180910390f35b6102aa60048036038101906102a59190613957565b611676565b005b6102c660048036038101906102c1919061331e565b6116d3565b6040516102d5939291906139aa565b60405180910390f35b6102f860048036038101906102f3919061331e565b611785565b60405161030d999897969594939291906139e8565b60405180910390f35b610330600480360381019061032b9190613bd4565b611b03565b005b61034c6004803603810190610347919061331e565b611c53565b60405161035e96959493929190613d32565b60405180910390f35b610381600480360381019061037c9190613db6565b611f37565b005b61039d6004803603810190610398919061331e565b612052565b6040516103af96959493929190613d32565b60405180910390f35b6103c0612336565b6040516103cd9190613744565b60405180910390f35b6103f060048036038101906103eb919061331e565b61233c565b6040516103fd9190613722565b60405180910390f35b61040e612884565b60405161041b9190613744565b60405180910390f35b61043e6004803603810190610439919061331e565b61288a565b60405161044e9493929190613ebd565b60405180910390f35b61045f6128ba565b60405161046c9190613744565b60405180910390f35b61047d6128c0565b60405161048a9190614069565b60405180910390f35b61049b612c87565b6040516104a89190613744565b60405180910390f35b6104cb60048036038101906104c6919061331e565b612c8d565b6040516104d89190613722565b60405180910390f35b600080546104ee906140ba565b80601f016020809104026020016040519081016040528092919081815260200182805461051a906140ba565b80156105675780601f1061053c57610100808354040283529160200191610567565b820191906000526020600020905b81548152906001019060200180831161054a57829003601f168201915b505050505081565b61057761316a565b60085482111561058657600080fd5b6000600160008481526020019081526020016000209050806040518060c0016040529081600082015481526020016001820180546105c3906140ba565b80601f01602080910402602001604051908101604052809291908181526020018280546105ef906140ba565b801561063c5780601f106106115761010080835404028352916020019161063c565b820191906000526020600020905b81548152906001019060200180831161061f57829003601f168201915b50505050508152602001600282018054610655906140ba565b80601f0160208091040260200160405190810160405280929190818152602001828054610681906140ba565b80156106ce5780601f106106a3576101008083540402835291602001916106ce565b820191906000526020600020905b8154815290600101906020018083116106b157829003601f168201915b505050505081526020016003820180546106e7906140ba565b80601f0160208091040260200160405190810160405280929190818152602001828054610713906140ba565b80156107605780601f1061073557610100808354040283529160200191610760565b820191906000526020600020905b81548152906001019060200180831161074357829003601f168201915b50505050508152602001600482018054610779906140ba565b80601f01602080910402602001604051908101604052809291908181526020018280546107a5906140ba565b80156107f25780601f106107c7576101008083540402835291602001916107f2565b820191906000526020600020905b8154815290600101906020018083116107d557829003601f168201915b5050505050815260200160058201805461080b906140ba565b80601f0160208091040260200160405190810160405280929190818152602001828054610837906140ba565b80156108845780601f1061085957610100808354040283529160200191610884565b820191906000526020600020905b81548152906001019060200180831161086757829003601f168201915b505050505081525050915050919050565b60076020528060005260406000206000915090508060000154908060010154908060020154905083565b6108c76131a0565b6008548211156108d657600080fd5b6000600260008481526020019081526020016000209050806040518060c001604052908160008201548152602001600182018054610913906140ba565b80601f016020809104026020016040519081016040528092919081815260200182805461093f906140ba565b801561098c5780601f106109615761010080835404028352916020019161098c565b820191906000526020600020905b81548152906001019060200180831161096f57829003601f168201915b505050505081526020016002820180546109a5906140ba565b80601f01602080910402602001604051908101604052809291908181526020018280546109d1906140ba565b8015610a1e5780601f106109f357610100808354040283529160200191610a1e565b820191906000526020600020905b815481529060010190602001808311610a0157829003601f168201915b50505050508152602001600382018054610a37906140ba565b80601f0160208091040260200160405190810160405280929190818152602001828054610a63906140ba565b8015610ab05780601f10610a8557610100808354040283529160200191610ab0565b820191906000526020600020905b815481529060010190602001808311610a9357829003601f168201915b50505050508152602001600482018054610ac9906140ba565b80601f0160208091040260200160405190810160405280929190818152602001828054610af5906140ba565b8015610b425780601f10610b1757610100808354040283529160200191610b42565b820191906000526020600020905b815481529060010190602001808311610b2557829003601f168201915b50505050508152602001600582018054610b5b906140ba565b80601f0160208091040260200160405190810160405280929190818152602001828054610b87906140ba565b8015610bd45780601f10610ba957610100808354040283529160200191610bd4565b820191906000526020600020905b815481529060010190602001808311610bb757829003601f168201915b505050505081525050915050919050565b6060600080600c5467ffffffffffffffff811115610c0657610c05613aa9565b5b604051908082528060200260200182016040528015610c3f57816020015b610c2c6131d6565b815260200190600190039081610c245790505b50905060005b600c5481101561104a576000600182610c5e919061411a565b9050600060066000838152602001908152602001600020905080604051806101200160405290816000820154815260200160018201548152602001600282018054610ca8906140ba565b80601f0160208091040260200160405190810160405280929190818152602001828054610cd4906140ba565b8015610d215780601f10610cf657610100808354040283529160200191610d21565b820191906000526020600020905b815481529060010190602001808311610d0457829003601f168201915b50505050508152602001600382018054610d3a906140ba565b80601f0160208091040260200160405190810160405280929190818152602001828054610d66906140ba565b8015610db35780601f10610d8857610100808354040283529160200191610db3565b820191906000526020600020905b815481529060010190602001808311610d9657829003601f168201915b5050505050815260200160048201548152602001600582018054610dd6906140ba565b80601f0160208091040260200160405190810160405280929190818152602001828054610e02906140ba565b8015610e4f5780601f10610e2457610100808354040283529160200191610e4f565b820191906000526020600020905b815481529060010190602001808311610e3257829003601f168201915b50505050508152602001600682018054610e68906140ba565b80601f0160208091040260200160405190810160405280929190818152602001828054610e94906140ba565b8015610ee15780601f10610eb657610100808354040283529160200191610ee1565b820191906000526020600020905b815481529060010190602001808311610ec457829003601f168201915b50505050508152602001600782018054610efa906140ba565b80601f0160208091040260200160405190810160405280929190818152602001828054610f26906140ba565b8015610f735780601f10610f4857610100808354040283529160200191610f73565b820191906000526020600020905b815481529060010190602001808311610f5657829003601f168201915b50505050508152602001600882018054610f8c906140ba565b80601f0160208091040260200160405190810160405280929190818152602001828054610fb8906140ba565b80156110055780601f10610fda57610100808354040283529160200191611005565b820191906000526020600020905b815481529060010190602001808311610fe857829003601f168201915b5050505050815250508486815181106110215761102061414e565b5b6020026020010181905250600185611039919061411a565b945050508080600101915050610c45565b50809250505090565b600b5481565b6003602052806000526040600020600091509050806000015490806001018054611082906140ba565b80601f01602080910402602001604051908101604052809291908181526020018280546110ae906140ba565b80156110fb5780601f106110d0576101008083540402835291602001916110fb565b820191906000526020600020905b8154815290600101906020018083116110de57829003601f168201915b505050505090806002018054611110906140ba565b80601f016020809104026020016040519081016040528092919081815260200182805461113c906140ba565b80156111895780601f1061115e57610100808354040283529160200191611189565b820191906000526020600020905b81548152906001019060200180831161116c57829003601f168201915b50505050509080600301805461119e906140ba565b80601f01602080910402602001604051908101604052809291908181526020018280546111ca906140ba565b80156112175780601f106111ec57610100808354040283529160200191611217565b820191906000526020600020905b8154815290600101906020018083116111fa57829003601f168201915b50505050509080600401805461122c906140ba565b80601f0160208091040260200160405190810160405280929190818152602001828054611258906140ba565b80156112a55780601f1061127a576101008083540402835291602001916112a5565b820191906000526020600020905b81548152906001019060200180831161128857829003601f168201915b5050505050905085565b606060008060085467ffffffffffffffff8111156112d0576112cf613aa9565b5b60405190808252806020026020018201604052801561130957816020015b6112f661316a565b8152602001906001900390816112ee5790505b50905060005b60085481101561166d576000600182611328919061411a565b90506000600160008381526020019081526020016000209050806040518060c001604052908160008201548152602001600182018054611367906140ba565b80601f0160208091040260200160405190810160405280929190818152602001828054611393906140ba565b80156113e05780601f106113b5576101008083540402835291602001916113e0565b820191906000526020600020905b8154815290600101906020018083116113c357829003601f168201915b505050505081526020016002820180546113f9906140ba565b80601f0160208091040260200160405190810160405280929190818152602001828054611425906140ba565b80156114725780601f1061144757610100808354040283529160200191611472565b820191906000526020600020905b81548152906001019060200180831161145557829003601f168201915b5050505050815260200160038201805461148b906140ba565b80601f01602080910402602001604051908101604052809291908181526020018280546114b7906140ba565b80156115045780601f106114d957610100808354040283529160200191611504565b820191906000526020600020905b8154815290600101906020018083116114e757829003601f168201915b5050505050815260200160048201805461151d906140ba565b80601f0160208091040260200160405190810160405280929190818152602001828054611549906140ba565b80156115965780601f1061156b57610100808354040283529160200191611596565b820191906000526020600020905b81548152906001019060200180831161157957829003601f168201915b505050505081526020016005820180546115af906140ba565b80601f01602080910402602001604051908101604052809291908181526020018280546115db906140ba565b80156116285780601f106115fd57610100808354040283529160200191611628565b820191906000526020600020905b81548152906001019060200180831161160b57829003601f168201915b5050505050815250508486815181106116445761164361414e565b5b602002602001018190525060018561165c919061411a565b94505050808060010191505061130f565b50809250505090565b600b60008154809291906116899061417d565b9190505550600060056000600b5481526020019081526020016000209050600c54816000018190555083816003018190555082816001018190555081816002018190555050505050565b6004602052806000526040600020600091509050806000015490806001015490806002018054611702906140ba565b80601f016020809104026020016040519081016040528092919081815260200182805461172e906140ba565b801561177b5780601f106117505761010080835404028352916020019161177b565b820191906000526020600020905b81548152906001019060200180831161175e57829003601f168201915b5050505050905083565b60066020528060005260406000206000915090508060000154908060010154908060020180546117b4906140ba565b80601f01602080910402602001604051908101604052809291908181526020018280546117e0906140ba565b801561182d5780601f106118025761010080835404028352916020019161182d565b820191906000526020600020905b81548152906001019060200180831161181057829003601f168201915b505050505090806003018054611842906140ba565b80601f016020809104026020016040519081016040528092919081815260200182805461186e906140ba565b80156118bb5780601f10611890576101008083540402835291602001916118bb565b820191906000526020600020905b81548152906001019060200180831161189e57829003601f168201915b5050505050908060040154908060050180546118d6906140ba565b80601f0160208091040260200160405190810160405280929190818152602001828054611902906140ba565b801561194f5780601f106119245761010080835404028352916020019161194f565b820191906000526020600020905b81548152906001019060200180831161193257829003601f168201915b505050505090806006018054611964906140ba565b80601f0160208091040260200160405190810160405280929190818152602001828054611990906140ba565b80156119dd5780601f106119b2576101008083540402835291602001916119dd565b820191906000526020600020905b8154815290600101906020018083116119c057829003601f168201915b5050505050908060070180546119f2906140ba565b80601f0160208091040260200160405190810160405280929190818152602001828054611a1e906140ba565b8015611a6b5780601f10611a4057610100808354040283529160200191611a6b565b820191906000526020600020905b815481529060010190602001808311611a4e57829003601f168201915b505050505090806008018054611a80906140ba565b80601f0160208091040260200160405190810160405280929190818152602001828054611aac906140ba565b8015611af95780601f10611ace57610100808354040283529160200191611af9565b820191906000526020600020905b815481529060010190602001808311611adc57829003601f168201915b5050505050905089565b6000865111611b1157600080fd5b6000855111611b1f57600080fd5b6000845111611b2d57600080fd5b6000835111611b3b57600080fd5b6000825111611b4957600080fd5b6000815111611b5757600080fd5b600c6000815480929190611b6a9061417d565b9190505550600060066000600c5481526020019081526020016000209050600c54816000018190555088816001018190555086816003019081611bad9190614371565b5085816002019081611bbf9190614371565b5087816004018190555084816005019081611bda9190614371565b5083816006019081611bec9190614371565b5082816007019081611bfe9190614371565b5081816008019081611c109190614371565b507fedde1f77670c495bdd95aa0a5818afb5b25c0110fec0cf231934b4069dbef6a181604051611c4091906145fc565b60405180910390a1505050505050505050565b6001602052806000526040600020600091509050806000015490806001018054611c7c906140ba565b80601f0160208091040260200160405190810160405280929190818152602001828054611ca8906140ba565b8015611cf55780601f10611cca57610100808354040283529160200191611cf5565b820191906000526020600020905b815481529060010190602001808311611cd857829003601f168201915b505050505090806002018054611d0a906140ba565b80601f0160208091040260200160405190810160405280929190818152602001828054611d36906140ba565b8015611d835780601f10611d5857610100808354040283529160200191611d83565b820191906000526020600020905b815481529060010190602001808311611d6657829003601f168201915b505050505090806003018054611d98906140ba565b80601f0160208091040260200160405190810160405280929190818152602001828054611dc4906140ba565b8015611e115780601f10611de657610100808354040283529160200191611e11565b820191906000526020600020905b815481529060010190602001808311611df457829003601f168201915b505050505090806004018054611e26906140ba565b80601f0160208091040260200160405190810160405280929190818152602001828054611e52906140ba565b8015611e9f5780601f10611e7457610100808354040283529160200191611e9f565b820191906000526020600020905b815481529060010190602001808311611e8257829003601f168201915b505050505090806005018054611eb4906140ba565b80601f0160208091040260200160405190810160405280929190818152602001828054611ee0906140ba565b8015611f2d5780601f10611f0257610100808354040283529160200191611f2d565b820191906000526020600020905b815481529060010190602001808311611f1057829003601f168201915b5050505050905086565b6000855111611f4557600080fd5b6000845111611f5357600080fd5b6000835111611f6157600080fd5b6000825111611f6f57600080fd5b6000815111611f7d57600080fd5b60086000815480929190611f909061417d565b919050555060006001600060085481526020019081526020016000209050600854816000018190555085816001019081611fca9190614371565b5084816005019081611fdc9190614371565b5083816002019081611fee9190614371565b50828160030190816120009190614371565b50818160040190816120129190614371565b507f8a393f24b50f96cb78dcfb57a53c4c8979f03a0c93941ff9576c05c14a9465cf8160405161204291906146cb565b60405180910390a1505050505050565b600260205280600052604060002060009150905080600001549080600101805461207b906140ba565b80601f01602080910402602001604051908101604052809291908181526020018280546120a7906140ba565b80156120f45780601f106120c9576101008083540402835291602001916120f4565b820191906000526020600020905b8154815290600101906020018083116120d757829003601f168201915b505050505090806002018054612109906140ba565b80601f0160208091040260200160405190810160405280929190818152602001828054612135906140ba565b80156121825780601f1061215757610100808354040283529160200191612182565b820191906000526020600020905b81548152906001019060200180831161216557829003601f168201915b505050505090806003018054612197906140ba565b80601f01602080910402602001604051908101604052809291908181526020018280546121c3906140ba565b80156122105780601f106121e557610100808354040283529160200191612210565b820191906000526020600020905b8154815290600101906020018083116121f357829003601f168201915b505050505090806004018054612225906140ba565b80601f0160208091040260200160405190810160405280929190818152602001828054612251906140ba565b801561229e5780601f106122735761010080835404028352916020019161229e565b820191906000526020600020905b81548152906001019060200180831161228157829003601f168201915b5050505050908060050180546122b3906140ba565b80601f01602080910402602001604051908101604052809291908181526020018280546122df906140ba565b801561232c5780601f106123015761010080835404028352916020019161232c565b820191906000526020600020905b81548152906001019060200180831161230f57829003601f168201915b5050505050905086565b60085481565b606060008060005b600c548110156123a057600060018261235d919061411a565b90506000600560008381526020019081526020016000209050868160010154036123915760018461238e919061411a565b93505b50508080600101915050612344565b5060008167ffffffffffffffff8111156123bd576123bc613aa9565b5b6040519080825280602002602001820160405280156123f657816020015b6123e36131d6565b8152602001906001900390816123db5790505b50905060005b600b54811015612878576000600182612415919061411a565b90506000600560008381526020019081526020016000209050878160010154036128695760005b600c5481101561286757600060066000600184612459919061411a565b815260200190815260200160002090508260030154816000015403612859576124806131d6565b816000015481600001818152505081600101548160200181815250508160030180546124ab906140ba565b80601f01602080910402602001604051908101604052809291908181526020018280546124d7906140ba565b80156125245780601f106124f957610100808354040283529160200191612524565b820191906000526020600020905b81548152906001019060200180831161250757829003601f168201915b50505050508160600181905250816002018054612540906140ba565b80601f016020809104026020016040519081016040528092919081815260200182805461256c906140ba565b80156125b95780601f1061258e576101008083540402835291602001916125b9565b820191906000526020600020905b81548152906001019060200180831161259c57829003601f168201915b5050505050816040018190525083600201548160800181815250508160050180546125e3906140ba565b80601f016020809104026020016040519081016040528092919081815260200182805461260f906140ba565b801561265c5780601f106126315761010080835404028352916020019161265c565b820191906000526020600020905b81548152906001019060200180831161263f57829003601f168201915b50505050508160a00181905250816006018054612678906140ba565b80601f01602080910402602001604051908101604052809291908181526020018280546126a4906140ba565b80156126f15780601f106126c6576101008083540402835291602001916126f1565b820191906000526020600020905b8154815290600101906020018083116126d457829003601f168201915b50505050508160c0018190525081600701805461270d906140ba565b80601f0160208091040260200160405190810160405280929190818152602001828054612739906140ba565b80156127865780601f1061275b57610100808354040283529160200191612786565b820191906000526020600020905b81548152906001019060200180831161276957829003601f168201915b50505050508160e001819052508160080180546127a2906140ba565b80601f01602080910402602001604051908101604052809291908181526020018280546127ce906140ba565b801561281b5780601f106127f05761010080835404028352916020019161281b565b820191906000526020600020905b8154815290600101906020018083116127fe57829003601f168201915b505050505081610100018190525080878a8151811061283d5761283c61414e565b5b6020026020010181905250600189612855919061411a565b9850505b50808060010191505061243c565b505b505080806001019150506123fc565b50809350505050919050565b60095481565b60056020528060005260406000206000915090508060000154908060010154908060020154908060030154905084565b600a5481565b606060008060095467ffffffffffffffff8111156128e1576128e0613aa9565b5b60405190808252806020026020018201604052801561291a57816020015b6129076131a0565b8152602001906001900390816128ff5790505b50905060005b600954811015612c7e576000600182612939919061411a565b90506000600260008381526020019081526020016000209050806040518060c001604052908160008201548152602001600182018054612978906140ba565b80601f01602080910402602001604051908101604052809291908181526020018280546129a4906140ba565b80156129f15780601f106129c6576101008083540402835291602001916129f1565b820191906000526020600020905b8154815290600101906020018083116129d457829003601f168201915b50505050508152602001600282018054612a0a906140ba565b80601f0160208091040260200160405190810160405280929190818152602001828054612a36906140ba565b8015612a835780601f10612a5857610100808354040283529160200191612a83565b820191906000526020600020905b815481529060010190602001808311612a6657829003601f168201915b50505050508152602001600382018054612a9c906140ba565b80601f0160208091040260200160405190810160405280929190818152602001828054612ac8906140ba565b8015612b155780601f10612aea57610100808354040283529160200191612b15565b820191906000526020600020905b815481529060010190602001808311612af857829003601f168201915b50505050508152602001600482018054612b2e906140ba565b80601f0160208091040260200160405190810160405280929190818152602001828054612b5a906140ba565b8015612ba75780601f10612b7c57610100808354040283529160200191612ba7565b820191906000526020600020905b815481529060010190602001808311612b8a57829003601f168201915b50505050508152602001600582018054612bc0906140ba565b80601f0160208091040260200160405190810160405280929190818152602001828054612bec906140ba565b8015612c395780601f10612c0e57610100808354040283529160200191612c39565b820191906000526020600020905b815481529060010190602001808311612c1c57829003601f168201915b505050505081525050848681518110612c5557612c5461414e565b5b6020026020010181905250600185612c6d919061411a565b945050508080600101915050612920565b50809250505090565b600c5481565b606060008060005b600c54811015612cf1576000600182612cae919061411a565b9050600060066000838152602001908152602001600020905086816001015403612ce257600184612cdf919061411a565b93505b50508080600101915050612c95565b5060008167ffffffffffffffff811115612d0e57612d0d613aa9565b5b604051908082528060200260200182016040528015612d4757816020015b612d346131d6565b815260200190600190039081612d2c5790505b50905060005b600c5481101561315e576000600182612d66919061411a565b905060006006600083815260200190815260200160002090508781600101540361314f5780604051806101200160405290816000820154815260200160018201548152602001600282018054612dbb906140ba565b80601f0160208091040260200160405190810160405280929190818152602001828054612de7906140ba565b8015612e345780601f10612e0957610100808354040283529160200191612e34565b820191906000526020600020905b815481529060010190602001808311612e1757829003601f168201915b50505050508152602001600382018054612e4d906140ba565b80601f0160208091040260200160405190810160405280929190818152602001828054612e79906140ba565b8015612ec65780601f10612e9b57610100808354040283529160200191612ec6565b820191906000526020600020905b815481529060010190602001808311612ea957829003601f168201915b5050505050815260200160048201548152602001600582018054612ee9906140ba565b80601f0160208091040260200160405190810160405280929190818152602001828054612f15906140ba565b8015612f625780601f10612f3757610100808354040283529160200191612f62565b820191906000526020600020905b815481529060010190602001808311612f4557829003601f168201915b50505050508152602001600682018054612f7b906140ba565b80601f0160208091040260200160405190810160405280929190818152602001828054612fa7906140ba565b8015612ff45780601f10612fc957610100808354040283529160200191612ff4565b820191906000526020600020905b815481529060010190602001808311612fd757829003601f168201915b5050505050815260200160078201805461300d906140ba565b80601f0160208091040260200160405190810160405280929190818152602001828054613039906140ba565b80156130865780601f1061305b57610100808354040283529160200191613086565b820191906000526020600020905b81548152906001019060200180831161306957829003601f168201915b5050505050815260200160088201805461309f906140ba565b80601f01602080910402602001604051908101604052809291908181526020018280546130cb906140ba565b80156131185780601f106130ed57610100808354040283529160200191613118565b820191906000526020600020905b8154815290600101906020018083116130fb57829003601f168201915b5050505050815250508487815181106131345761313361414e565b5b602002602001018190525060018661314c919061411a565b95505b50508080600101915050612d4d565b50809350505050919050565b6040518060c001604052806000815260200160608152602001606081526020016060815260200160608152602001606081525090565b6040518060c001604052806000815260200160608152602001606081526020016060815260200160608152602001606081525090565b6040518061012001604052806000815260200160008152602001606081526020016060815260200160008152602001606081526020016060815260200160608152602001606081525090565b600081519050919050565b600082825260208201905092915050565b60005b8381101561325c578082015181840152602081019050613241565b60008484015250505050565b6000601f19601f8301169050919050565b600061328482613222565b61328e818561322d565b935061329e81856020860161323e565b6132a781613268565b840191505092915050565b600060208201905081810360008301526132cc8184613279565b905092915050565b6000604051905090565b600080fd5b600080fd5b6000819050919050565b6132fb816132e8565b811461330657600080fd5b50565b600081359050613318816132f2565b92915050565b600060208284031215613334576133336132de565b5b600061334284828501613309565b91505092915050565b613354816132e8565b82525050565b600082825260208201905092915050565b600061337682613222565b613380818561335a565b935061339081856020860161323e565b61339981613268565b840191505092915050565b600060c0830160008301516133bc600086018261334b565b50602083015184820360208601526133d4828261336b565b915050604083015184820360408601526133ee828261336b565b91505060608301518482036060860152613408828261336b565b91505060808301518482036080860152613422828261336b565b91505060a083015184820360a086015261343c828261336b565b9150508091505092915050565b6000602082019050818103600083015261346381846133a4565b905092915050565b613474816132e8565b82525050565b600060608201905061348f600083018661346b565b61349c602083018561346b565b6134a9604083018461346b565b949350505050565b600060c0830160008301516134c9600086018261334b565b50602083015184820360208601526134e1828261336b565b915050604083015184820360408601526134fb828261336b565b91505060608301518482036060860152613515828261336b565b9150506080830151848203608086015261352f828261336b565b91505060a083015184820360a0860152613549828261336b565b9150508091505092915050565b6000602082019050818103600083015261357081846134b1565b905092915050565b600081519050919050565b600082825260208201905092915050565b6000819050602082019050919050565b6000610120830160008301516135bd600086018261334b565b5060208301516135d0602086018261334b565b50604083015184820360408601526135e8828261336b565b91505060608301518482036060860152613602828261336b565b9150506080830151613617608086018261334b565b5060a083015184820360a086015261362f828261336b565b91505060c083015184820360c0860152613649828261336b565b91505060e083015184820360e0860152613663828261336b565b91505061010083015184820361010086015261367f828261336b565b9150508091505092915050565b600061369883836135a4565b905092915050565b6000602082019050919050565b60006136b882613578565b6136c28185613583565b9350836020820285016136d485613594565b8060005b8581101561371057848403895281516136f1858261368c565b94506136fc836136a0565b925060208a019950506001810190506136d8565b50829750879550505050505092915050565b6000602082019050818103600083015261373c81846136ad565b905092915050565b6000602082019050613759600083018461346b565b92915050565b600060a082019050613774600083018861346b565b81810360208301526137868187613279565b9050818103604083015261379a8186613279565b905081810360608301526137ae8185613279565b905081810360808301526137c28184613279565b90509695505050505050565b600081519050919050565b600082825260208201905092915050565b6000819050602082019050919050565b600060c083016000830151613812600086018261334b565b506020830151848203602086015261382a828261336b565b91505060408301518482036040860152613844828261336b565b9150506060830151848203606086015261385e828261336b565b91505060808301518482036080860152613878828261336b565b91505060a083015184820360a0860152613892828261336b565b9150508091505092915050565b60006138ab83836137fa565b905092915050565b6000602082019050919050565b60006138cb826137ce565b6138d581856137d9565b9350836020820285016138e7856137ea565b8060005b858110156139235784840389528151613904858261389f565b945061390f836138b3565b925060208a019950506001810190506138eb565b50829750879550505050505092915050565b6000602082019050818103600083015261394f81846138c0565b905092915050565b6000806000606084860312156139705761396f6132de565b5b600061397e86828701613309565b935050602061398f86828701613309565b92505060406139a086828701613309565b9150509250925092565b60006060820190506139bf600083018661346b565b6139cc602083018561346b565b81810360408301526139de8184613279565b9050949350505050565b6000610120820190506139fe600083018c61346b565b613a0b602083018b61346b565b8181036040830152613a1d818a613279565b90508181036060830152613a318189613279565b9050613a40608083018861346b565b81810360a0830152613a528187613279565b905081810360c0830152613a668186613279565b905081810360e0830152613a7a8185613279565b9050818103610100830152613a8f8184613279565b90509a9950505050505050505050565b600080fd5b600080fd5b7f4e487b7100000000000000000000000000000000000000000000000000000000600052604160045260246000fd5b613ae182613268565b810181811067ffffffffffffffff82111715613b0057613aff613aa9565b5b80604052505050565b6000613b136132d4565b9050613b1f8282613ad8565b919050565b600067ffffffffffffffff821115613b3f57613b3e613aa9565b5b613b4882613268565b9050602081019050919050565b82818337600083830152505050565b6000613b77613b7284613b24565b613b09565b905082815260208101848484011115613b9357613b92613aa4565b5b613b9e848285613b55565b509392505050565b600082601f830112613bbb57613bba613a9f565b5b8135613bcb848260208601613b64565b91505092915050565b600080600080600080600080610100898b031215613bf557613bf46132de565b5b6000613c038b828c01613309565b9850506020613c148b828c01613309565b975050604089013567ffffffffffffffff811115613c3557613c346132e3565b5b613c418b828c01613ba6565b965050606089013567ffffffffffffffff811115613c6257613c616132e3565b5b613c6e8b828c01613ba6565b955050608089013567ffffffffffffffff811115613c8f57613c8e6132e3565b5b613c9b8b828c01613ba6565b94505060a089013567ffffffffffffffff811115613cbc57613cbb6132e3565b5b613cc88b828c01613ba6565b93505060c089013567ffffffffffffffff811115613ce957613ce86132e3565b5b613cf58b828c01613ba6565b92505060e089013567ffffffffffffffff811115613d1657613d156132e3565b5b613d228b828c01613ba6565b9150509295985092959890939650565b600060c082019050613d47600083018961346b565b8181036020830152613d598188613279565b90508181036040830152613d6d8187613279565b90508181036060830152613d818186613279565b90508181036080830152613d958185613279565b905081810360a0830152613da98184613279565b9050979650505050505050565b600080600080600060a08688031215613dd257613dd16132de565b5b600086013567ffffffffffffffff811115613df057613def6132e3565b5b613dfc88828901613ba6565b955050602086013567ffffffffffffffff811115613e1d57613e1c6132e3565b5b613e2988828901613ba6565b945050604086013567ffffffffffffffff811115613e4a57613e496132e3565b5b613e5688828901613ba6565b935050606086013567ffffffffffffffff811115613e7757613e766132e3565b5b613e8388828901613ba6565b925050608086013567ffffffffffffffff811115613ea457613ea36132e3565b5b613eb088828901613ba6565b9150509295509295909350565b6000608082019050613ed2600083018761346b565b613edf602083018661346b565b613eec604083018561346b565b613ef9606083018461346b565b95945050505050565b600081519050919050565b600082825260208201905092915050565b6000819050602082019050919050565b600060c083016000830151613f46600086018261334b565b5060208301518482036020860152613f5e828261336b565b91505060408301518482036040860152613f78828261336b565b91505060608301518482036060860152613f92828261336b565b91505060808301518482036080860152613fac828261336b565b91505060a083015184820360a0860152613fc6828261336b565b9150508091505092915050565b6000613fdf8383613f2e565b905092915050565b6000602082019050919050565b6000613fff82613f02565b6140098185613f0d565b93508360208202850161401b85613f1e565b8060005b8581101561405757848403895281516140388582613fd3565b945061404383613fe7565b925060208a0199505060018101905061401f565b50829750879550505050505092915050565b600060208201905081810360008301526140838184613ff4565b905092915050565b7f4e487b7100000000000000000000000000000000000000000000000000000000600052602260045260246000fd5b600060028204905060018216806140d257607f821691505b6020821081036140e5576140e461408b565b5b50919050565b7f4e487b7100000000000000000000000000000000000000000000000000000000600052601160045260246000fd5b6000614125826132e8565b9150614130836132e8565b9250828201905080821115614148576141476140eb565b5b92915050565b7f4e487b7100000000000000000000000000000000000000000000000000000000600052603260045260246000fd5b6000614188826132e8565b91507fffffffffffffffffffffffffffffffffffffffffffffffffffffffffffffffff82036141ba576141b96140eb565b5b600182019050919050565b60008190508160005260206000209050919050565b60006020601f8301049050919050565b600082821b905092915050565b6000600883026142277fffffffffffffffffffffffffffffffffffffffffffffffffffffffffffffffff826141ea565b61423186836141ea565b95508019841693508086168417925050509392505050565b6000819050919050565b600061426e614269614264846132e8565b614249565b6132e8565b9050919050565b6000819050919050565b61428883614253565b61429c61429482614275565b8484546141f7565b825550505050565b600090565b6142b16142a4565b6142bc81848461427f565b505050565b5b818110156142e0576142d56000826142a9565b6001810190506142c2565b5050565b601f821115614325576142f6816141c5565b6142ff846141da565b8101602085101561430e578190505b61432261431a856141da565b8301826142c1565b50505b505050565b600082821c905092915050565b60006143486000198460080261432a565b1980831691505092915050565b60006143618383614337565b9150826002028217905092915050565b61437a82613222565b67ffffffffffffffff81111561439357614392613aa9565b5b61439d82546140ba565b6143a88282856142e4565b600060209050601f8311600181146143db57600084156143c9578287015190505b6143d38582614355565b86555061443b565b601f1984166143e9866141c5565b60005b82811015614411578489015182556001820191506020850194506020810190506143ec565b8683101561442e578489015161442a601f891682614337565b8355505b6001600288020188555050505b505050505050565b60008160001c9050919050565b6000819050919050565b600061446d61446883614443565b614450565b9050919050565b60008154614481816140ba565b61448b818661335a565b945060018216600081146144a657600181146144bc576144ef565b60ff1983168652811515602002860193506144ef565b6144c5856141c5565b60005b838110156144e7578154818901526001820191506020810190506144c8565b808801955050505b50505092915050565b6000610120830160008084015490506145108161445a565b61451d600087018261334b565b506001840154905061452e8161445a565b61453b602087018261334b565b506002840185830360408701526145528382614474565b92505060038401858303606087015261456b8382614474565b9250506004840154905061457e8161445a565b61458b608087018261334b565b506005840185830360a08701526145a28382614474565b9250506006840185830360c08701526145bb8382614474565b9250506007840185830360e08701526145d48382614474565b925050600884018583036101008701526145ee8382614474565b925050819250505092915050565b6000602082019050818103600083015261461681846144f8565b905092915050565b600060c0830160008084015490506146358161445a565b614642600087018261334b565b506001840185830360208701526146598382614474565b9250506002840185830360408701526146728382614474565b92505060038401858303606087015261468b8382614474565b9250506004840185830360808701526146a48382614474565b9250506005840185830360a08701526146bd8382614474565b925050819250505092915050565b600060208201905081810360008301526146e5818461461e565b90509291505056fea2646970667358221220e161ce9aaaca96f049d5469723c17117def86342c09b1b3ecb52d987cd94628e64736f6c63430008180033",
  "linkReferences": {},
  "deployedLinkReferences": {}
}